{
	"_format": "hh-sol-artifact-1",
	"contractName": "MemeNFT",
	"sourceName": "contracts/MemeNFT.sol",
	"abi": [
		{
			"inputs": [],
			"stateMutability": "nonpayable",
			"type": "constructor"
		},
		{
			"anonymous": false,
			"inputs": [
				{
					"indexed": true,
					"internalType": "address",
					"name": "owner",
					"type": "address"
				},
				{
					"indexed": true,
					"internalType": "address",
					"name": "approved",
					"type": "address"
				},
				{
					"indexed": true,
					"internalType": "uint256",
					"name": "tokenId",
					"type": "uint256"
				}
			],
			"name": "Approval",
			"type": "event"
		},
		{
			"anonymous": false,
			"inputs": [
				{
					"indexed": true,
					"internalType": "address",
					"name": "owner",
					"type": "address"
				},
				{
					"indexed": true,
					"internalType": "address",
					"name": "operator",
					"type": "address"
				},
				{
					"indexed": false,
					"internalType": "bool",
					"name": "approved",
					"type": "bool"
				}
			],
			"name": "ApprovalForAll",
			"type": "event"
		},
		{
			"anonymous": false,
			"inputs": [
				{
					"indexed": true,
					"internalType": "address",
					"name": "previousOwner",
					"type": "address"
				},
				{
					"indexed": true,
					"internalType": "address",
					"name": "newOwner",
					"type": "address"
				}
			],
			"name": "OwnershipTransferred",
			"type": "event"
		},
		{
			"anonymous": false,
			"inputs": [
				{
					"indexed": true,
					"internalType": "address",
					"name": "from",
					"type": "address"
				},
				{
					"indexed": true,
					"internalType": "address",
					"name": "to",
					"type": "address"
				},
				{
					"indexed": true,
					"internalType": "uint256",
					"name": "tokenId",
					"type": "uint256"
				}
			],
			"name": "Transfer",
			"type": "event"
		},
		{
			"inputs": [],
			"name": "MAX_SUPPLY",
			"outputs": [
				{
					"internalType": "uint256",
					"name": "",
					"type": "uint256"
				}
			],
			"stateMutability": "view",
			"type": "function"
		},
		{
			"inputs": [],
			"name": "MINT_PRICE",
			"outputs": [
				{
					"internalType": "uint256",
					"name": "",
					"type": "uint256"
				}
			],
			"stateMutability": "view",
			"type": "function"
		},
		{
			"inputs": [
				{
					"internalType": "address",
					"name": "to",
					"type": "address"
				},
				{
					"internalType": "uint256",
					"name": "tokenId",
					"type": "uint256"
				}
			],
			"name": "approve",
			"outputs": [],
			"stateMutability": "nonpayable",
			"type": "function"
		},
		{
			"inputs": [
				{
					"internalType": "address",
					"name": "owner",
					"type": "address"
				}
			],
			"name": "balanceOf",
			"outputs": [
				{
					"internalType": "uint256",
					"name": "",
					"type": "uint256"
				}
			],
			"stateMutability": "view",
			"type": "function"
		},
		{
			"inputs": [
				{
					"internalType": "uint256",
					"name": "tokenId",
					"type": "uint256"
				}
			],
			"name": "getApproved",
			"outputs": [
				{
					"internalType": "address",
					"name": "",
					"type": "address"
				}
			],
			"stateMutability": "view",
			"type": "function"
		},
		{
			"inputs": [
				{
					"internalType": "address",
					"name": "owner",
					"type": "address"
				},
				{
					"internalType": "address",
					"name": "operator",
					"type": "address"
				}
			],
			"name": "isApprovedForAll",
			"outputs": [
				{
					"internalType": "bool",
					"name": "",
					"type": "bool"
				}
			],
			"stateMutability": "view",
			"type": "function"
		},
		{
			"inputs": [],
			"name": "name",
			"outputs": [
				{
					"internalType": "string",
					"name": "",
					"type": "string"
				}
			],
			"stateMutability": "view",
			"type": "function"
		},
		{
			"inputs": [],
			"name": "owner",
			"outputs": [
				{
					"internalType": "address",
					"name": "",
					"type": "address"
				}
			],
			"stateMutability": "view",
			"type": "function"
		},
		{
			"inputs": [
				{
					"internalType": "uint256",
					"name": "tokenId",
					"type": "uint256"
				}
			],
			"name": "ownerOf",
			"outputs": [
				{
					"internalType": "address",
					"name": "",
					"type": "address"
				}
			],
			"stateMutability": "view",
			"type": "function"
		},
		{
			"inputs": [],
			"name": "renounceOwnership",
			"outputs": [],
			"stateMutability": "nonpayable",
			"type": "function"
		},
		{
			"inputs": [
				{
					"internalType": "address",
					"name": "to",
					"type": "address"
				},
				{
					"internalType": "string",
					"name": "uri",
					"type": "string"
				}
			],
			"name": "safeMint",
			"outputs": [],
			"stateMutability": "payable",
			"type": "function"
		},
		{
			"inputs": [
				{
					"internalType": "address",
					"name": "from",
					"type": "address"
				},
				{
					"internalType": "address",
					"name": "to",
					"type": "address"
				},
				{
					"internalType": "uint256",
					"name": "tokenId",
					"type": "uint256"
				}
			],
			"name": "safeTransferFrom",
			"outputs": [],
			"stateMutability": "nonpayable",
			"type": "function"
		},
		{
			"inputs": [
				{
					"internalType": "address",
					"name": "from",
					"type": "address"
				},
				{
					"internalType": "address",
					"name": "to",
					"type": "address"
				},
				{
					"internalType": "uint256",
					"name": "tokenId",
					"type": "uint256"
				},
				{
					"internalType": "bytes",
					"name": "_data",
					"type": "bytes"
				}
			],
			"name": "safeTransferFrom",
			"outputs": [],
			"stateMutability": "nonpayable",
			"type": "function"
		},
		{
			"inputs": [
				{
					"internalType": "address",
					"name": "operator",
					"type": "address"
				},
				{
					"internalType": "bool",
					"name": "approved",
					"type": "bool"
				}
			],
			"name": "setApprovalForAll",
			"outputs": [],
			"stateMutability": "nonpayable",
			"type": "function"
		},
		{
			"inputs": [
				{
					"internalType": "bytes4",
					"name": "interfaceId",
					"type": "bytes4"
				}
			],
			"name": "supportsInterface",
			"outputs": [
				{
					"internalType": "bool",
					"name": "",
					"type": "bool"
				}
			],
			"stateMutability": "view",
			"type": "function"
		},
		{
			"inputs": [],
			"name": "symbol",
			"outputs": [
				{
					"internalType": "string",
					"name": "",
					"type": "string"
				}
			],
			"stateMutability": "view",
			"type": "function"
		},
		{
			"inputs": [
				{
					"internalType": "uint256",
					"name": "index",
					"type": "uint256"
				}
			],
			"name": "tokenByIndex",
			"outputs": [
				{
					"internalType": "uint256",
					"name": "",
					"type": "uint256"
				}
			],
			"stateMutability": "view",
			"type": "function"
		},
		{
			"inputs": [
				{
					"internalType": "address",
					"name": "owner",
					"type": "address"
				},
				{
					"internalType": "uint256",
					"name": "index",
					"type": "uint256"
				}
			],
			"name": "tokenOfOwnerByIndex",
			"outputs": [
				{
					"internalType": "uint256",
					"name": "",
					"type": "uint256"
				}
			],
			"stateMutability": "view",
			"type": "function"
		},
		{
			"inputs": [
				{
					"internalType": "uint256",
					"name": "tokenId",
					"type": "uint256"
				}
			],
			"name": "tokenURI",
			"outputs": [
				{
					"internalType": "string",
					"name": "",
					"type": "string"
				}
			],
			"stateMutability": "view",
			"type": "function"
		},
		{
			"inputs": [],
			"name": "totalSupply",
			"outputs": [
				{
					"internalType": "uint256",
					"name": "",
					"type": "uint256"
				}
			],
			"stateMutability": "view",
			"type": "function"
		},
		{
			"inputs": [
				{
					"internalType": "address",
					"name": "from",
					"type": "address"
				},
				{
					"internalType": "address",
					"name": "to",
					"type": "address"
				},
				{
					"internalType": "uint256",
					"name": "tokenId",
					"type": "uint256"
				}
			],
			"name": "transferFrom",
			"outputs": [],
			"stateMutability": "nonpayable",
			"type": "function"
		},
		{
			"inputs": [
				{
					"internalType": "address",
					"name": "newOwner",
					"type": "address"
				}
			],
			"name": "transferOwnership",
			"outputs": [],
			"stateMutability": "nonpayable",
			"type": "function"
		},
		{
			"inputs": [],
			"name": "withdrawPayments",
			"outputs": [],
			"stateMutability": "nonpayable",
			"type": "function"
		}
	],
	"bytecode": "0x60806040523480156200001157600080fd5b506040518060400160405280600781526020017f4d656d654e4654000000000000000000000000000000000000000000000000008152506040518060400160405280600381526020017f4d454d0000000000000000000000000000000000000000000000000000000000815250816000908051906020019062000096929190620001d3565b508060019080519060200190620000af929190620001d3565b505050620000d2620000c6620000ef60201b60201c565b620000f760201b60201c565b620000e9600c620001bd60201b62000fe21760201c565b620002e8565b600033905090565b6000600b60009054906101000a900473ffffffffffffffffffffffffffffffffffffffff16905081600b60006101000a81548173ffffffffffffffffffffffffffffffffffffffff021916908373ffffffffffffffffffffffffffffffffffffffff1602179055508173ffffffffffffffffffffffffffffffffffffffff168173ffffffffffffffffffffffffffffffffffffffff167f8be0079c531659141344cd1fd0a4f28419497f9722a3daafe3b4186f6b6457e060405160405180910390a35050565b6001816000016000828254019250508190555050565b828054620001e19062000283565b90600052602060002090601f01602090048101928262000205576000855562000251565b82601f106200022057805160ff191683800117855562000251565b8280016001018555821562000251579182015b828111156200025057825182559160200191906001019062000233565b5b50905062000260919062000264565b5090565b5b808211156200027f57600081600090555060010162000265565b5090565b600060028204905060018216806200029c57607f821691505b60208210811415620002b357620002b2620002b9565b5b50919050565b7f4e487b7100000000000000000000000000000000000000000000000000000000600052602260045260246000fd5b613bfb80620002f86000396000f3fe6080604052600436106101405760003560e01c80636352211e116100b6578063b88d4fde1161006f578063b88d4fde1461045c578063c002d23d14610485578063c87b56dd146104b0578063d204c45e146104ed578063e985e9c514610509578063f2fde38b1461054657610140565b80636352211e1461034c57806370a0823114610389578063715018a6146103c65780638da5cb5b146103dd57806395d89b4114610408578063a22cb4651461043357610140565b806323b872dd1161010857806323b872dd1461023e5780632f745c591461026757806332cb6b0c146102a457806342842e0e146102cf5780634f6ccce7146102f85780636103d70b1461033557610140565b806301ffc9a71461014557806306fdde0314610182578063081812fc146101ad578063095ea7b3146101ea57806318160ddd14610213575b600080fd5b34801561015157600080fd5b5061016c60048036038101906101679190612988565b61056f565b6040516101799190612e60565b60405180910390f35b34801561018e57600080fd5b50610197610581565b6040516101a49190612e7b565b60405180910390f35b3480156101b957600080fd5b506101d460048036038101906101cf91906129da565b610613565b6040516101e19190612df9565b60405180910390f35b3480156101f657600080fd5b50610211600480360381019061020c919061294c565b610698565b005b34801561021f57600080fd5b506102286107b0565b604051610235919061315d565b60405180910390f35b34801561024a57600080fd5b50610265600480360381019061026091906127f2565b6107bd565b005b34801561027357600080fd5b5061028e6004803603810190610289919061294c565b61081d565b60405161029b919061315d565b60405180910390f35b3480156102b057600080fd5b506102b96108c2565b6040516102c6919061315d565b60405180910390f35b3480156102db57600080fd5b506102f660048036038101906102f191906127f2565b6108c9565b005b34801561030457600080fd5b5061031f600480360381019061031a91906129da565b6108e9565b60405161032c919061315d565b60405180910390f35b34801561034157600080fd5b5061034a610980565b005b34801561035857600080fd5b50610373600480360381019061036e91906129da565b610a4c565b6040516103809190612df9565b60405180910390f35b34801561039557600080fd5b506103b060048036038101906103ab919061278d565b610afe565b6040516103bd919061315d565b60405180910390f35b3480156103d257600080fd5b506103db610bb6565b005b3480156103e957600080fd5b506103f2610c3e565b6040516103ff9190612df9565b60405180910390f35b34801561041457600080fd5b5061041d610c68565b60405161042a9190612e7b565b60405180910390f35b34801561043f57600080fd5b5061045a600480360381019061045591906128bc565b610cfa565b005b34801561046857600080fd5b50610483600480360381019061047e9190612841565b610d10565b005b34801561049157600080fd5b5061049a610d72565b6040516104a7919061315d565b60405180910390f35b3480156104bc57600080fd5b506104d760048036038101906104d291906129da565b610d7d565b6040516104e49190612e7b565b60405180910390f35b610507600480360381019061050291906128f8565b610d8f565b005b34801561051557600080fd5b50610530600480360381019061052b91906127b6565b610e56565b60405161053d9190612e60565b60405180910390f35b34801561055257600080fd5b5061056d6004803603810190610568919061278d565b610eea565b005b600061057a82610ff8565b9050919050565b606060008054610590906133b3565b80601f01602080910402602001604051908101604052809291908181526020018280546105bc906133b3565b80156106095780601f106105de57610100808354040283529160200191610609565b820191906000526020600020905b8154815290600101906020018083116105ec57829003601f168201915b5050505050905090565b600061061e82611072565b61065d576040517f08c379a00000000000000000000000000000000000000000000000000000000081526004016106549061307d565b60405180910390fd5b6004600083815260200190815260200160002060009054906101000a900473ffffffffffffffffffffffffffffffffffffffff169050919050565b60006106a382610a4c565b90508073ffffffffffffffffffffffffffffffffffffffff168373ffffffffffffffffffffffffffffffffffffffff161415610714576040517f08c379a000000000000000000000000000000000000000000000000000000000815260040161070b906130dd565b60405180910390fd5b8073ffffffffffffffffffffffffffffffffffffffff166107336110de565b73ffffffffffffffffffffffffffffffffffffffff16148061076257506107618161075c6110de565b610e56565b5b6107a1576040517f08c379a000000000000000000000000000000000000000000000000000000000815260040161079890612f9d565b60405180910390fd5b6107ab83836110e6565b505050565b6000600880549050905090565b6107ce6107c86110de565b8261119f565b61080d576040517f08c379a0000000000000000000000000000000000000000000000000000000008152600401610804906130fd565b60405180910390fd5b61081883838361127d565b505050565b600061082883610afe565b8210610869576040517f08c379a000000000000000000000000000000000000000000000000000000000815260040161086090612e9d565b60405180910390fd5b600660008473ffffffffffffffffffffffffffffffffffffffff1673ffffffffffffffffffffffffffffffffffffffff168152602001908152602001600020600083815260200190815260200160002054905092915050565b620f424081565b6108e483838360405180602001604052806000815250610d10565b505050565b60006108f36107b0565b8210610934576040517f08c379a000000000000000000000000000000000000000000000000000000000815260040161092b9061313d565b60405180910390fd5b6008828154811061096e577f4e487b7100000000000000000000000000000000000000000000000000000000600052603260045260246000fd5b90600052602060002001549050919050565b6109886110de565b73ffffffffffffffffffffffffffffffffffffffff166109a6610c3e565b73ffffffffffffffffffffffffffffffffffffffff16146109fc576040517f08c379a00000000000000000000000000000000000000000000000000000000081526004016109f39061309d565b60405180910390fd5b610a04610c3e565b73ffffffffffffffffffffffffffffffffffffffff166108fc479081150290604051600060405180830381858888f19350505050158015610a49573d6000803e3d6000fd5b50565b6000806002600084815260200190815260200160002060009054906101000a900473ffffffffffffffffffffffffffffffffffffffff169050600073ffffffffffffffffffffffffffffffffffffffff168173ffffffffffffffffffffffffffffffffffffffff161415610af5576040517f08c379a0000000000000000000000000000000000000000000000000000000008152600401610aec90612fdd565b60405180910390fd5b80915050919050565b60008073ffffffffffffffffffffffffffffffffffffffff168273ffffffffffffffffffffffffffffffffffffffff161415610b6f576040517f08c379a0000000000000000000000000000000000000000000000000000000008152600401610b6690612fbd565b60405180910390fd5b600360008373ffffffffffffffffffffffffffffffffffffffff1673ffffffffffffffffffffffffffffffffffffffff168152602001908152602001600020549050919050565b610bbe6110de565b73ffffffffffffffffffffffffffffffffffffffff16610bdc610c3e565b73ffffffffffffffffffffffffffffffffffffffff1614610c32576040517f08c379a0000000000000000000000000000000000000000000000000000000008152600401610c299061309d565b60405180910390fd5b610c3c60006114e4565b565b6000600b60009054906101000a900473ffffffffffffffffffffffffffffffffffffffff16905090565b606060018054610c77906133b3565b80601f0160208091040260200160405190810160405280929190818152602001828054610ca3906133b3565b8015610cf05780601f10610cc557610100808354040283529160200191610cf0565b820191906000526020600020905b815481529060010190602001808311610cd357829003601f168201915b5050505050905090565b610d0c610d056110de565b83836115aa565b5050565b610d21610d1b6110de565b8361119f565b610d60576040517f08c379a0000000000000000000000000000000000000000000000000000000008152600401610d57906130fd565b60405180910390fd5b610d6c84848484611717565b50505050565b66038d7ea4c6800081565b6060610d8882611773565b9050919050565b66038d7ea4c68000341015610dd9576040517f08c379a0000000000000000000000000000000000000000000000000000000008152600401610dd09061301d565b60405180910390fd5b620f4240610de56107b0565b10610e25576040517f08c379a0000000000000000000000000000000000000000000000000000000008152600401610e1c9061311d565b60405180910390fd5b6000610e31600c6118c5565b9050610e3d600c610fe2565b610e4783826118d3565b610e5181836118f1565b505050565b6000600560008473ffffffffffffffffffffffffffffffffffffffff1673ffffffffffffffffffffffffffffffffffffffff16815260200190815260200160002060008373ffffffffffffffffffffffffffffffffffffffff1673ffffffffffffffffffffffffffffffffffffffff16815260200190815260200160002060009054906101000a900460ff16905092915050565b610ef26110de565b73ffffffffffffffffffffffffffffffffffffffff16610f10610c3e565b73ffffffffffffffffffffffffffffffffffffffff1614610f66576040517f08c379a0000000000000000000000000000000000000000000000000000000008152600401610f5d9061309d565b60405180910390fd5b600073ffffffffffffffffffffffffffffffffffffffff168173ffffffffffffffffffffffffffffffffffffffff161415610fd6576040517f08c379a0000000000000000000000000000000000000000000000000000000008152600401610fcd90612edd565b60405180910390fd5b610fdf816114e4565b50565b6001816000016000828254019250508190555050565b60007f780e9d63000000000000000000000000000000000000000000000000000000007bffffffffffffffffffffffffffffffffffffffffffffffffffffffff1916827bffffffffffffffffffffffffffffffffffffffffffffffffffffffff1916148061106b575061106a82611965565b5b9050919050565b60008073ffffffffffffffffffffffffffffffffffffffff166002600084815260200190815260200160002060009054906101000a900473ffffffffffffffffffffffffffffffffffffffff1673ffffffffffffffffffffffffffffffffffffffff1614159050919050565b600033905090565b816004600083815260200190815260200160002060006101000a81548173ffffffffffffffffffffffffffffffffffffffff021916908373ffffffffffffffffffffffffffffffffffffffff160217905550808273ffffffffffffffffffffffffffffffffffffffff1661115983610a4c565b73ffffffffffffffffffffffffffffffffffffffff167f8c5be1e5ebec7d5bd14f71427d1e84f3dd0314c0f7b2291e5b200ac8c7c3b92560405160405180910390a45050565b60006111aa82611072565b6111e9576040517f08c379a00000000000000000000000000000000000000000000000000000000081526004016111e090612f7d565b60405180910390fd5b60006111f483610a4c565b90508073ffffffffffffffffffffffffffffffffffffffff168473ffffffffffffffffffffffffffffffffffffffff16148061123657506112358185610e56565b5b8061127457508373ffffffffffffffffffffffffffffffffffffffff1661125c84610613565b73ffffffffffffffffffffffffffffffffffffffff16145b91505092915050565b8273ffffffffffffffffffffffffffffffffffffffff1661129d82610a4c565b73ffffffffffffffffffffffffffffffffffffffff16146112f3576040517f08c379a00000000000000000000000000000000000000000000000000000000081526004016112ea90612efd565b60405180910390fd5b600073ffffffffffffffffffffffffffffffffffffffff168273ffffffffffffffffffffffffffffffffffffffff161415611363576040517f08c379a000000000000000000000000000000000000000000000000000000000815260040161135a90612f3d565b60405180910390fd5b61136e838383611a47565b6113796000826110e6565b6001600360008573ffffffffffffffffffffffffffffffffffffffff1673ffffffffffffffffffffffffffffffffffffffff16815260200190815260200160002060008282546113c991906132c9565b925050819055506001600360008473ffffffffffffffffffffffffffffffffffffffff1673ffffffffffffffffffffffffffffffffffffffff16815260200190815260200160002060008282546114209190613242565b92505081905550816002600083815260200190815260200160002060006101000a81548173ffffffffffffffffffffffffffffffffffffffff021916908373ffffffffffffffffffffffffffffffffffffffff160217905550808273ffffffffffffffffffffffffffffffffffffffff168473ffffffffffffffffffffffffffffffffffffffff167fddf252ad1be2c89b69c2b068fc378daa952ba7f163c4a11628f55a4df523b3ef60405160405180910390a46114df838383611a57565b505050565b6000600b60009054906101000a900473ffffffffffffffffffffffffffffffffffffffff16905081600b60006101000a81548173ffffffffffffffffffffffffffffffffffffffff021916908373ffffffffffffffffffffffffffffffffffffffff1602179055508173ffffffffffffffffffffffffffffffffffffffff168173ffffffffffffffffffffffffffffffffffffffff167f8be0079c531659141344cd1fd0a4f28419497f9722a3daafe3b4186f6b6457e060405160405180910390a35050565b8173ffffffffffffffffffffffffffffffffffffffff168373ffffffffffffffffffffffffffffffffffffffff161415611619576040517f08c379a000000000000000000000000000000000000000000000000000000000815260040161161090612f5d565b60405180910390fd5b80600560008573ffffffffffffffffffffffffffffffffffffffff1673ffffffffffffffffffffffffffffffffffffffff16815260200190815260200160002060008473ffffffffffffffffffffffffffffffffffffffff1673ffffffffffffffffffffffffffffffffffffffff16815260200190815260200160002060006101000a81548160ff0219169083151502179055508173ffffffffffffffffffffffffffffffffffffffff168373ffffffffffffffffffffffffffffffffffffffff167f17307eab39ab6107e8899845ad3d59bd9653f200f220920489ca2b5937696c318360405161170a9190612e60565b60405180910390a3505050565b61172284848461127d565b61172e84848484611a5c565b61176d576040517f08c379a000000000000000000000000000000000000000000000000000000000815260040161176490612ebd565b60405180910390fd5b50505050565b606061177e82611072565b6117bd576040517f08c379a00000000000000000000000000000000000000000000000000000000081526004016117b49061305d565b60405180910390fd5b6000600a600084815260200190815260200160002080546117dd906133b3565b80601f0160208091040260200160405190810160405280929190818152602001828054611809906133b3565b80156118565780601f1061182b57610100808354040283529160200191611856565b820191906000526020600020905b81548152906001019060200180831161183957829003601f168201915b505050505090506000611867611bf3565b905060008151141561187d5781925050506118c0565b6000825111156118b257808260405160200161189a929190612dd5565b604051602081830303815290604052925050506118c0565b6118bb84611c0a565b925050505b919050565b600081600001549050919050565b6118ed828260405180602001604052806000815250611cb1565b5050565b6118fa82611072565b611939576040517f08c379a000000000000000000000000000000000000000000000000000000000815260040161193090612ffd565b60405180910390fd5b80600a600084815260200190815260200160002090805190602001906119609291906125b1565b505050565b60007f80ac58cd000000000000000000000000000000000000000000000000000000007bffffffffffffffffffffffffffffffffffffffffffffffffffffffff1916827bffffffffffffffffffffffffffffffffffffffffffffffffffffffff19161480611a3057507f5b5e139f000000000000000000000000000000000000000000000000000000007bffffffffffffffffffffffffffffffffffffffffffffffffffffffff1916827bffffffffffffffffffffffffffffffffffffffffffffffffffffffff1916145b80611a405750611a3f82611d0c565b5b9050919050565b611a52838383611d76565b505050565b505050565b6000611a7d8473ffffffffffffffffffffffffffffffffffffffff16611e8a565b15611be6578373ffffffffffffffffffffffffffffffffffffffff1663150b7a02611aa66110de565b8786866040518563ffffffff1660e01b8152600401611ac89493929190612e14565b602060405180830381600087803b158015611ae257600080fd5b505af1925050508015611b1357506040513d601f19601f82011682018060405250810190611b1091906129b1565b60015b611b96573d8060008114611b43576040519150601f19603f3d011682016040523d82523d6000602084013e611b48565b606091505b50600081511415611b8e576040517f08c379a0000000000000000000000000000000000000000000000000000000008152600401611b8590612ebd565b60405180910390fd5b805181602001fd5b63150b7a0260e01b7bffffffffffffffffffffffffffffffffffffffffffffffffffffffff1916817bffffffffffffffffffffffffffffffffffffffffffffffffffffffff191614915050611beb565b600190505b949350505050565b606060405180602001604052806000815250905090565b6060611c1582611072565b611c54576040517f08c379a0000000000000000000000000000000000000000000000000000000008152600401611c4b906130bd565b60405180910390fd5b6000611c5e611bf3565b90506000815111611c7e5760405180602001604052806000815250611ca9565b80611c8884611ead565b604051602001611c99929190612dd5565b6040516020818303038152906040525b915050919050565b611cbb838361205a565b611cc86000848484611a5c565b611d07576040517f08c379a0000000000000000000000000000000000000000000000000000000008152600401611cfe90612ebd565b60405180910390fd5b505050565b60007f01ffc9a7000000000000000000000000000000000000000000000000000000007bffffffffffffffffffffffffffffffffffffffffffffffffffffffff1916827bffffffffffffffffffffffffffffffffffffffffffffffffffffffff1916149050919050565b611d81838383612234565b600073ffffffffffffffffffffffffffffffffffffffff168373ffffffffffffffffffffffffffffffffffffffff161415611dc457611dbf81612239565b611e03565b8173ffffffffffffffffffffffffffffffffffffffff168373ffffffffffffffffffffffffffffffffffffffff1614611e0257611e018382612282565b5b5b600073ffffffffffffffffffffffffffffffffffffffff168273ffffffffffffffffffffffffffffffffffffffff161415611e4657611e41816123ef565b611e85565b8273ffffffffffffffffffffffffffffffffffffffff168273ffffffffffffffffffffffffffffffffffffffff1614611e8457611e838282612532565b5b5b505050565b6000808273ffffffffffffffffffffffffffffffffffffffff163b119050919050565b60606000821415611ef5576040518060400160405280600181526020017f30000000000000000000000000000000000000000000000000000000000000008152509050612055565b600082905060005b60008214611f27578080611f1090613416565b915050600a82611f209190613298565b9150611efd565b60008167ffffffffffffffff811115611f69577f4e487b7100000000000000000000000000000000000000000000000000000000600052604160045260246000fd5b6040519080825280601f01601f191660200182016040528015611f9b5781602001600182028036833780820191505090505b5090505b6000851461204e57600182611fb491906132c9565b9150600a85611fc3919061345f565b6030611fcf9190613242565b60f81b81838151811061200b577f4e487b7100000000000000000000000000000000000000000000000000000000600052603260045260246000fd5b60200101907effffffffffffffffffffffffffffffffffffffffffffffffffffffffffffff1916908160001a905350600a856120479190613298565b9450611f9f565b8093505050505b919050565b600073ffffffffffffffffffffffffffffffffffffffff168273ffffffffffffffffffffffffffffffffffffffff1614156120ca576040517f08c379a00000000000000000000000000000000000000000000000000000000081526004016120c19061303d565b60405180910390fd5b6120d381611072565b15612113576040517f08c379a000000000000000000000000000000000000000000000000000000000815260040161210a90612f1d565b60405180910390fd5b61211f60008383611a47565b6001600360008473ffffffffffffffffffffffffffffffffffffffff1673ffffffffffffffffffffffffffffffffffffffff168152602001908152602001600020600082825461216f9190613242565b92505081905550816002600083815260200190815260200160002060006101000a81548173ffffffffffffffffffffffffffffffffffffffff021916908373ffffffffffffffffffffffffffffffffffffffff160217905550808273ffffffffffffffffffffffffffffffffffffffff16600073ffffffffffffffffffffffffffffffffffffffff167fddf252ad1be2c89b69c2b068fc378daa952ba7f163c4a11628f55a4df523b3ef60405160405180910390a461223060008383611a57565b5050565b505050565b6008805490506009600083815260200190815260200160002081905550600881908060018154018082558091505060019003906000526020600020016000909190919091505550565b6000600161228f84610afe565b61229991906132c9565b905060006007600084815260200190815260200160002054905081811461237e576000600660008673ffffffffffffffffffffffffffffffffffffffff1673ffffffffffffffffffffffffffffffffffffffff168152602001908152602001600020600084815260200190815260200160002054905080600660008773ffffffffffffffffffffffffffffffffffffffff1673ffffffffffffffffffffffffffffffffffffffff168152602001908152602001600020600084815260200190815260200160002081905550816007600083815260200190815260200160002081905550505b6007600084815260200190815260200160002060009055600660008573ffffffffffffffffffffffffffffffffffffffff1673ffffffffffffffffffffffffffffffffffffffff16815260200190815260200160002060008381526020019081526020016000206000905550505050565b6000600160088054905061240391906132c9565b9050600060096000848152602001908152602001600020549050600060088381548110612459577f4e487b7100000000000000000000000000000000000000000000000000000000600052603260045260246000fd5b9060005260206000200154905080600883815481106124a1577f4e487b7100000000000000000000000000000000000000000000000000000000600052603260045260246000fd5b906000526020600020018190555081600960008381526020019081526020016000208190555060096000858152602001908152602001600020600090556008805480612516577f4e487b7100000000000000000000000000000000000000000000000000000000600052603160045260246000fd5b6001900381819060005260206000200160009055905550505050565b600061253d83610afe565b905081600660008573ffffffffffffffffffffffffffffffffffffffff1673ffffffffffffffffffffffffffffffffffffffff168152602001908152602001600020600083815260200190815260200160002081905550806007600084815260200190815260200160002081905550505050565b8280546125bd906133b3565b90600052602060002090601f0160209004810192826125df5760008555612626565b82601f106125f857805160ff1916838001178555612626565b82800160010185558215612626579182015b8281111561262557825182559160200191906001019061260a565b5b5090506126339190612637565b5090565b5b80821115612650576000816000905550600101612638565b5090565b60006126676126628461319d565b613178565b90508281526020810184848401111561267f57600080fd5b61268a848285613371565b509392505050565b60006126a56126a0846131ce565b613178565b9050828152602081018484840111156126bd57600080fd5b6126c8848285613371565b509392505050565b6000813590506126df81613b69565b92915050565b6000813590506126f481613b80565b92915050565b60008135905061270981613b97565b92915050565b60008151905061271e81613b97565b92915050565b600082601f83011261273557600080fd5b8135612745848260208601612654565b91505092915050565b600082601f83011261275f57600080fd5b813561276f848260208601612692565b91505092915050565b60008135905061278781613bae565b92915050565b60006020828403121561279f57600080fd5b60006127ad848285016126d0565b91505092915050565b600080604083850312156127c957600080fd5b60006127d7858286016126d0565b92505060206127e8858286016126d0565b9150509250929050565b60008060006060848603121561280757600080fd5b6000612815868287016126d0565b9350506020612826868287016126d0565b925050604061283786828701612778565b9150509250925092565b6000806000806080858703121561285757600080fd5b6000612865878288016126d0565b9450506020612876878288016126d0565b935050604061288787828801612778565b925050606085013567ffffffffffffffff8111156128a457600080fd5b6128b087828801612724565b91505092959194509250565b600080604083850312156128cf57600080fd5b60006128dd858286016126d0565b92505060206128ee858286016126e5565b9150509250929050565b6000806040838503121561290b57600080fd5b6000612919858286016126d0565b925050602083013567ffffffffffffffff81111561293657600080fd5b6129428582860161274e565b9150509250929050565b6000806040838503121561295f57600080fd5b600061296d858286016126d0565b925050602061297e85828601612778565b9150509250929050565b60006020828403121561299a57600080fd5b60006129a8848285016126fa565b91505092915050565b6000602082840312156129c357600080fd5b60006129d18482850161270f565b91505092915050565b6000602082840312156129ec57600080fd5b60006129fa84828501612778565b91505092915050565b612a0c816132fd565b82525050565b612a1b8161330f565b82525050565b6000612a2c826131ff565b612a368185613215565b9350612a46818560208601613380565b612a4f8161354c565b840191505092915050565b6000612a658261320a565b612a6f8185613226565b9350612a7f818560208601613380565b612a888161354c565b840191505092915050565b6000612a9e8261320a565b612aa88185613237565b9350612ab8818560208601613380565b80840191505092915050565b6000612ad1602b83613226565b9150612adc8261355d565b604082019050919050565b6000612af4603283613226565b9150612aff826135ac565b604082019050919050565b6000612b17602683613226565b9150612b22826135fb565b604082019050919050565b6000612b3a602583613226565b9150612b458261364a565b604082019050919050565b6000612b5d601c83613226565b9150612b6882613699565b602082019050919050565b6000612b80602483613226565b9150612b8b826136c2565b604082019050919050565b6000612ba3601983613226565b9150612bae82613711565b602082019050919050565b6000612bc6602c83613226565b9150612bd18261373a565b604082019050919050565b6000612be9603883613226565b9150612bf482613789565b604082019050919050565b6000612c0c602a83613226565b9150612c17826137d8565b604082019050919050565b6000612c2f602983613226565b9150612c3a82613827565b604082019050919050565b6000612c52602e83613226565b9150612c5d82613876565b604082019050919050565b6000612c75602f83613226565b9150612c80826138c5565b604082019050919050565b6000612c98602083613226565b9150612ca382613914565b602082019050919050565b6000612cbb603183613226565b9150612cc68261393d565b604082019050919050565b6000612cde602c83613226565b9150612ce98261398c565b604082019050919050565b6000612d01602083613226565b9150612d0c826139db565b602082019050919050565b6000612d24602f83613226565b9150612d2f82613a04565b604082019050919050565b6000612d47602183613226565b9150612d5282613a53565b604082019050919050565b6000612d6a603183613226565b9150612d7582613aa2565b604082019050919050565b6000612d8d601283613226565b9150612d9882613af1565b602082019050919050565b6000612db0602c83613226565b9150612dbb82613b1a565b604082019050919050565b612dcf81613367565b82525050565b6000612de18285612a93565b9150612ded8284612a93565b91508190509392505050565b6000602082019050612e0e6000830184612a03565b92915050565b6000608082019050612e296000830187612a03565b612e366020830186612a03565b612e436040830185612dc6565b8181036060830152612e558184612a21565b905095945050505050565b6000602082019050612e756000830184612a12565b92915050565b60006020820190508181036000830152612e958184612a5a565b905092915050565b60006020820190508181036000830152612eb681612ac4565b9050919050565b60006020820190508181036000830152612ed681612ae7565b9050919050565b60006020820190508181036000830152612ef681612b0a565b9050919050565b60006020820190508181036000830152612f1681612b2d565b9050919050565b60006020820190508181036000830152612f3681612b50565b9050919050565b60006020820190508181036000830152612f5681612b73565b9050919050565b60006020820190508181036000830152612f7681612b96565b9050919050565b60006020820190508181036000830152612f9681612bb9565b9050919050565b60006020820190508181036000830152612fb681612bdc565b9050919050565b60006020820190508181036000830152612fd681612bff565b9050919050565b60006020820190508181036000830152612ff681612c22565b9050919050565b6000602082019050818103600083015261301681612c45565b9050919050565b6000602082019050818103600083015261303681612c68565b9050919050565b6000602082019050818103600083015261305681612c8b565b9050919050565b6000602082019050818103600083015261307681612cae565b9050919050565b6000602082019050818103600083015261309681612cd1565b9050919050565b600060208201905081810360008301526130b681612cf4565b9050919050565b600060208201905081810360008301526130d681612d17565b9050919050565b600060208201905081810360008301526130f681612d3a565b9050919050565b6000602082019050818103600083015261311681612d5d565b9050919050565b6000602082019050818103600083015261313681612d80565b9050919050565b6000602082019050818103600083015261315681612da3565b9050919050565b60006020820190506131726000830184612dc6565b92915050565b6000613182613193565b905061318e82826133e5565b919050565b6000604051905090565b600067ffffffffffffffff8211156131b8576131b761351d565b5b6131c18261354c565b9050602081019050919050565b600067ffffffffffffffff8211156131e9576131e861351d565b5b6131f28261354c565b9050602081019050919050565b600081519050919050565b600081519050919050565b600082825260208201905092915050565b600082825260208201905092915050565b600081905092915050565b600061324d82613367565b915061325883613367565b9250827fffffffffffffffffffffffffffffffffffffffffffffffffffffffffffffffff0382111561328d5761328c613490565b5b828201905092915050565b60006132a382613367565b91506132ae83613367565b9250826132be576132bd6134bf565b5b828204905092915050565b60006132d482613367565b91506132df83613367565b9250828210156132f2576132f1613490565b5b828203905092915050565b600061330882613347565b9050919050565b60008115159050919050565b60007fffffffff0000000000000000000000000000000000000000000000000000000082169050919050565b600073ffffffffffffffffffffffffffffffffffffffff82169050919050565b6000819050919050565b82818337600083830152505050565b60005b8381101561339e578082015181840152602081019050613383565b838111156133ad576000848401525b50505050565b600060028204905060018216806133cb57607f821691505b602082108114156133df576133de6134ee565b5b50919050565b6133ee8261354c565b810181811067ffffffffffffffff8211171561340d5761340c61351d565b5b80604052505050565b600061342182613367565b91507fffffffffffffffffffffffffffffffffffffffffffffffffffffffffffffffff82141561345457613453613490565b5b600182019050919050565b600061346a82613367565b915061347583613367565b925082613485576134846134bf565b5b828206905092915050565b7f4e487b7100000000000000000000000000000000000000000000000000000000600052601160045260246000fd5b7f4e487b7100000000000000000000000000000000000000000000000000000000600052601260045260246000fd5b7f4e487b7100000000000000000000000000000000000000000000000000000000600052602260045260246000fd5b7f4e487b7100000000000000000000000000000000000000000000000000000000600052604160045260246000fd5b6000601f19601f8301169050919050565b7f455243373231456e756d657261626c653a206f776e657220696e646578206f7560008201527f74206f6620626f756e6473000000000000000000000000000000000000000000602082015250565b7f4552433732313a207472616e7366657220746f206e6f6e20455243373231526560008201527f63656976657220696d706c656d656e7465720000000000000000000000000000602082015250565b7f4f776e61626c653a206e6577206f776e657220697320746865207a65726f206160008201527f6464726573730000000000000000000000000000000000000000000000000000602082015250565b7f4552433732313a207472616e736665722066726f6d20696e636f72726563742060008201527f6f776e6572000000000000000000000000000000000000000000000000000000602082015250565b7f4552433732313a20746f6b656e20616c7265616479206d696e74656400000000600082015250565b7f4552433732313a207472616e7366657220746f20746865207a65726f2061646460008201527f7265737300000000000000000000000000000000000000000000000000000000602082015250565b7f4552433732313a20617070726f766520746f2063616c6c657200000000000000600082015250565b7f4552433732313a206f70657261746f7220717565727920666f72206e6f6e657860008201527f697374656e7420746f6b656e0000000000000000000000000000000000000000602082015250565b7f4552433732313a20617070726f76652063616c6c6572206973206e6f74206f7760008201527f6e6572206e6f7220617070726f76656420666f7220616c6c0000000000000000602082015250565b7f4552433732313a2062616c616e636520717565727920666f7220746865207a6560008201527f726f206164647265737300000000000000000000000000000000000000000000602082015250565b7f4552433732313a206f776e657220717565727920666f72206e6f6e657869737460008201527f656e7420746f6b656e0000000000000000000000000000000000000000000000602082015250565b7f45524337323155524953746f726167653a2055524920736574206f66206e6f6e60008201527f6578697374656e7420746f6b656e000000000000000000000000000000000000602082015250565b7f5472616e73616374696f6e2076616c756520646964206e6f7420657175616c2060008201527f746865206d696e74207072696365210000000000000000000000000000000000602082015250565b7f4552433732313a206d696e7420746f20746865207a65726f2061646472657373600082015250565b7f45524337323155524953746f726167653a2055524920717565727920666f722060008201527f6e6f6e6578697374656e7420746f6b656e000000000000000000000000000000602082015250565b7f4552433732313a20617070726f76656420717565727920666f72206e6f6e657860008201527f697374656e7420746f6b656e0000000000000000000000000000000000000000602082015250565b7f4f776e61626c653a2063616c6c6572206973206e6f7420746865206f776e6572600082015250565b7f4552433732314d657461646174613a2055524920717565727920666f72206e6f60008201527f6e6578697374656e7420746f6b656e0000000000000000000000000000000000602082015250565b7f4552433732313a20617070726f76616c20746f2063757272656e74206f776e6560008201527f7200000000000000000000000000000000000000000000000000000000000000602082015250565b7f4552433732313a207472616e736665722063616c6c6572206973206e6f74206f60008201527f776e6572206e6f7220617070726f766564000000000000000000000000000000602082015250565b7f4d617820737570706c7920726561636865640000000000000000000000000000600082015250565b7f455243373231456e756d657261626c653a20676c6f62616c20696e646578206f60008201527f7574206f6620626f756e64730000000000000000000000000000000000000000602082015250565b613b72816132fd565b8114613b7d57600080fd5b50565b613b898161330f565b8114613b9457600080fd5b50565b613ba08161331b565b8114613bab57600080fd5b50565b613bb781613367565b8114613bc257600080fd5b5056fea2646970667358221220be8fd5d85193b6de56fac3b42217c0edea5e9bb633fa9339313d6257eb6ce72d64736f6c63430008040033",
	"linkReferences": {},
	"deployedLinkReferences": {}
}